:020000040800F2
:100000000000022049340008ED060008EF06000851
:10001000F1060008F3060008F506000800000000DD
:10002000000000000000000000000000F7060008CB
:10003000F906000800000000FB060008FD060008A5
:10004000993400089934000899340008993400085C
:10005000993400089934000899340008993400084C
:10006000993400089934000899340008993400083C
:10007000993400089934000899340008993400082C
:10008000993400089934000899340008993400081C
:10009000993400089934000899340008993400080C
:1000A00099340008993400089934000899340008FC
:1000B00099340008993400089934000899340008EC
:1000C00099340008993400089934000899340008DC
:1000D00099340008993400089934000899340008CC
:1000E00099340008993400089934000899340008BC
:1000F00099340008993400089934000899340008AC
:10010000993400089934000899340008993400089B
:10011000993400089934000899340008993400088B
:10012000993400089934000899340008993400087B
:10013000993400089934000899340008993400086B
:100140009934000899340008993400080907000818
:10015000993400089934000899340008993400084B
:10016000993400089934000899340008993400083B
:100170009934000899340008993400080000000000
:080180009934000899340008CD
:1001880010B5054C237833B9044B13B10448AFF3C9
:1001980000800123237010BDC4010020000000006E
:1001A8009C3600080C4B43B10C480D4910B5AFF311
:1001B80000800C48036823B910BD0A48036833B9A6
:1001C8007047094B002BF7D0BDE810401847064B85
:1001D800002BF5D0184700BF000000009C3600082F
:1001E800C8010020C40100200000000053B94AB92A
:1001F800002908BF00281CBF4FF0FF314FF0FF3027
:1002080000F07AB9ADF1080C6DE904CE00F006F8FB
:10021800DDF804E0DDE9022304B070472DE9F0477A
:100228008C460D460446089E002B51D18A4217463B
:100238006DD9B2FA82FEBEF1000F0BD0CEF1200CC0
:1002480001FA0EF520FA0CFC02FA0EF74CEA050C3E
:1002580000FA0EF44FEA174A250CBCFBFAF81FFA0D
:1002680087F90AFB18CC45EA0C4508FB09F3AB42B1
:100278000AD9ED1908F1FF3280F02381AB4240F230
:100288002081A8F102083D44ED1AA4B2B5FBFAF0AA
:100298000AFB105544EA054400FB09F9A14509D9B0
:1002A800E41900F1FF3380F00A81A14540F207818B
:1002B80002383C44A4EB090440EA08400021002E1F
:1002C80061D024FA0EF4002334607360BDE8F0872F
:1002D8008B4207D9002E54D0002186E82100084619
:1002E800BDE8F087B3FA83F1002940F08E80AB4275
:1002F80002D3824200F2FA80841A65EB03050120DA
:10030800AC46002E3FD086E81010BDE8F08712B941
:100318000127B7FBF2F7B7FA87FEBEF1000F34D119
:10032800EB1B3A0C1FFA87FC0121B3FBF2F8250CF2
:1003380002FB183345EA03450CFB08F3AB4207D927
:10034800ED1908F1FF3002D2AB4200F2D1808046AD
:10035800ED1AA3B2B5FBF2F002FB105543EA0544CF
:100368000CFB00FCA44507D9E41900F1FF3302D2C5
:10037800A44500F2B8801846A4EB0C0440EA0840F3
:100388009DE731463046BDE8F087CEF1200405FAF6
:100398000EF307FA0EF720FA04F83A0C25FA04F4DB
:1003A80048EA0308B4FBF2F14FEA184502FB11448E
:1003B8001FFA87FC45EA044501FB0CF3AB4200FA3F
:1003C8000EF409D9ED1901F1FF3080F08A80AB42B3
:1003D80040F2878002393D44EB1A1FFA88F5B3FBD7
:1003E800F2F002FB103345EA034500FB0CF3AB4285
:1003F80007D9ED1900F1FF386FD2AB426DD9023839
:100408003D44EB1A40EA01418FE7C1F1200722FA87
:1004180007F88B4005FA01F448EA030320FA07FEBF
:100428004FEA134CFD404EEA040EB5FBFCF94FEAC7
:100438001E440CFB19551FFA83F844EA054509FBCD
:1004480008F4AC4202FA01F200FA01FA08D9ED18F0
:1004580009F1FF3043D2AC4241D9A9F102091D4448
:100468002D1B1FFA8EFEB5FBFCF00CFB10554EEA57
:10047800054400FB08F8A04507D9E41800F1FF354A
:1004880029D2A04527D902381C4440EA0940A4EBE8
:100498000804A0FB02894C45C6464D4615D312D028
:1004A80056B1BAEB0E0364EB050404FA07F7CB4028
:1004B8001F43CC40376074600021BDE8F0871846C0
:1004C800F8E69046E0E6C245EAD2B8EB020E69EBE0
:1004D80003050138E4E72846D7E7404691E7814617
:1004E800BEE7014678E702383C4445E7084608E796
:1004F800A8F102083D442BE7704700BF30B589B02A
:1005080000240094184B1A6B42F080021A631A6B8D
:1005180002F080020092009A01941A6B42F00802DD
:100528001A631A6B02F008020192019A02941A6B7C
:1005380042F001021A631B6B03F001030293029B52
:100548000A4D22464FF47041284600F0CDFA4FF488
:1005580070430393012304930594069403A9284642
:1005680000F0DCF909B030BD00380240000C024050
:10057800FEE7000000B595B0002101912B4B1A6CE5
:1005880042F080521A641B6C03F080530193019B64
:100598000291274B1A6842F480421A601B6803F4E0
:1005A80080430293029B012308934FF480330993FD
:1005B80002230E934FF480020F92082210924FF4F8
:1005C800A872119212930723139308A800F0AAFFA8
:1005D80020BB0F23039302230493002305934FF4B6
:1005E800A05306934FF480530793052103A801F005
:1005F800CFF9B8B901F078FA0E4BA3FB00308009A7
:1006080000F060F9042000F073F9002211464FF061
:10061800FF3000F019F915B05DF804FB9A2106487F
:10062800FFF7A6FFA8210448FFF7A2FF0038024001
:1006380000700040D34D6210CC36000808B500F0B9
:10064800B1F8FFF797FFFFF759FF02F0AFFCFEE79D
:1006580010B582B000240094214B5A6C42F48042B9
:100668005A645A6C02F480420092009A01941A6CFF
:1006780042F080521A641B6C03F080530193019B73
:10068800032000F0CFF8224621466FF00B0000F05F
:10069800DBF8224621466FF00A0000F0D5F8224622
:1006A80021466FF0090000F0CFF8224621466FF08E
:1006B800040000F0C9F8224621466FF0030000F05C
:1006C800C3F8224621466FF0010000F0BDF822462B
:1006D80021464FF0FF3000F0B7F802B010BD00BF60
:1006E800003802407047FEE7FEE7FEE7FEE7704786
:1006F8007047704708B500F06FF800F00AF908BDB8
:1007080008B5024800F0D6FA08BD00BF181400204A
:100718000F49D1F8883043F47003C1F888300D4B85
:100728001A6842F001021A60002098601A6822F0E4
:10073800847222F480321A60074A5A601A6822F4D6
:1007480080221A60D8604FF000638B60704700BF4A
:1007580000ED00E0003802401030002410B50446D7
:100768000E4B18784FF47A73B3FBF0F30C4A106809
:10077800B0FBF3F000F0A6F868B90F2C01D90120FE
:1007880010BD002221464FF0FF3000F05DF8034B0A
:100798005C60002010BD012010BD00BF04000020D7
:1007A8000000002008B50B4B1A6842F400721A606A
:1007B8001A6842F480621A601A6842F480721A60F9
:1007C800032000F02FF80020FFF7C8FFFFF740FFD5
:1007D800002008BD003C0240034A1168034B1B7807
:1007E8000B441360704700BFF00100200400002094
:1007F800014B1868704700BFF001002038B5044667
:10080800FFF7F6FF0546B4F1FF3F02D0044B1B7813
:100818001C44FFF7EDFF401B8442FAD838BD00BFE7
:1008280004000020074AD36823F4E0631B041B0C70
:10083800000200F4E060184340F0BF6040F400306C
:10084800D060704700ED00E030B4164BDB68C3F3AE
:100858000223C3F10704042C28BF04241D1D062D00
:1008680017D9033B012505FA04F4013C21409940BE
:1008780005FA03F3013B1340194300280BDB090178
:10088800C9B200F1604000F5614080F8001330BC47
:1008980070470023E6E700F00F000901C9B2024BD8
:1008A8001954F4E700ED00E014ED00E0420900F00F
:1008B8001F00012303FA00F0014B43F822007047A0
:1008C80000E100E00138B0F1807F0AD2064B5860A1
:1008D800F021064A82F823100020986007221A6047
:1008E80070470120704700BF10E000E000ED00E015
:1008F800042805D0054A136823F0040313607047E1
:10090800024A136843F004031360704710E000E0E4
:10091800704708B5FFF7FCFF08BD0000F0B583B0CD
:1009280000244BE04FEAD40E0EF1080E50F82E20AA
:1009380004F00706B6000F27B74022EA07020F693E
:1009480007FA06F6324340F82E2046E0072600E074
:10095800002606FA0EF6324302335E4E46F823208E
:100968005D4B1A68EB4302EA03064F6817F4803FB1
:1009780001D045EA0206584A1660526803EA0206A0
:100988004F6817F4003F01D045EA0206524A566004
:10099800926803EA02064F6817F4801F01D045EAFF
:1009A80002064D4A9660D26813404E6816F4001F3E
:1009B80001D045EA0203484AD36001340F2C00F203
:1009C80086800123A3400A6803EA0205AB42F4D1FA
:1009D8004A68022AA6D0122AA4D006684FEA440E12
:1009E800032202FA0EF2D24316404F6807F00307BB
:1009F80007FA0EF73E4306604E68771E012F03D9AB
:100A0800112E01D0122E0FD186681640CF6807FA32
:100A18000EF73E438660466826EA03034E68C6F32F
:100A28000016A64033434360C3681A408B6803FA34
:100A38000EF31A43C2604B6813F0805FBDD00023E9
:100A48000193264B5A6C42F480425A645B6C03F45F
:100A580080430193019BA3089E1C1E4A52F826203E
:100A680004F003064FEA860E0F2606FA0EF622EA6F
:100A780006021B4FB8423FF46BAF1A4EB0421AD071
:100A880006F58066B04218D006F58066B04216D0EA
:100A980006F58066B04214D006F58066B04212D0E2
:100AA80006F58066B04210D006F58066B0423FF485
:100AB8004DAF08264DE701264BE7022649E70326F6
:100AC80047E7042645E7052643E7062641E703B03E
:100AD800F0BD00BF00380140003C01400038024032
:100AE800000002400004024012B909048161704705
:100AF8008161704743695940416170472DE9F0436E
:100B080083B007460D46D0F80080CA00521A9300F9
:100B18000344DE6C1A6DB61A1B6C9E4200D91E4641
:100B280006F103094FEA990915E006F103094FEAAE
:100B38009909EB005B1B9C003C44616C3B7C009377
:100B4800B3B2EAB2404601F0CDFB636C3344636450
:100B5800236D33442365414608EB451303F51063C1
:100B68009B699BB2994512D2EA00521B93003B4401
:100B78001A6DDB6C9A420AD24BB19E1AC5EBC502BC
:100B880093003B441B6C9E42CFD91E46CDE73EB92D
:100B98000123AB40D1F8345825EA0305C1F834588D
:100BA800002003B0BDE8F08300286BD0F0B58BB00F
:100BB8000446032380F8B93302F076FA206800F07F
:100BC800DDFF254655F8107B6E460FCD0FC60FCDBD
:100BD8000FC695E8030086E80300231D0ECB3846B0
:100BE80000F088FF0021206800F0CEFF002210E00E
:100BF800D100891A8B002344012183F8391083F826
:100C08003820DA87002183F83B1019645964D964C5
:100C180001320E2AECD9002218E0D100891A8B0083
:100C28002344002183F8F91183F8F821DA8783F83F
:100C3800FB11C3F80012C3F80412C3F80C1223689E
:100C480002F1400003EB8003596001320E2AE4D917
:100C5800254655F8107B6E460FCD0FC60FCD0FC633
:100C680095E8030086E80300231D0ECB384600F004
:100C7800A1FF012384F8B933206801F0DEFB0020CE
:100C88000BB0F0BD0120704790F8B833012B01D1AB
:100C98000220704710B50446012380F8B833006875
:100CA80001F0BFFB206800F063FF002084F8B80360
:100CB80010BD00002DE9F04704460768384601F0EA
:100CC800F3FB08B1BDE8F0870646206801F0C1FBD8
:100CD8000028F7D0206801F0BCFB10F0020F04D008
:100CE8002268536903F002035361206801F0B1FBE5
:100CF80010F4002F75D13546206801F0AAFB10F4D6
:100D0800802F40F0D280206801F0A3FB0028C0F2B9
:100D18003E81206801F09DFB10F4006F0AD0D7F8DF
:100D2800083813F0010F40F041812268536903F439
:100D380000635361206801F08CFB10F4805F40F081
:100D48003981206801F085FB10F4005F40F0828152
:100D5800206801F07EFB10F0100F14D02268936910
:100D680023F0100393613E6A06F00F08C6F343436D
:100D7800022B00F00382062B00F02182226893697F
:100D880043F010039361206801F063FB10F0080F33
:100D980040F02982206801F05CFB10F4801F40F0CD
:100DA8002B82206801F055FB10F4001F40F02E82C2
:100DB800206801F04EFB10F0804F40F0318220682F
:100DC80001F047FB10F0040F3FF47CAF23685D6827
:100DD80015F0040F40F02D8223685A6815435D60B2
:100DE80070E7206801F039FB8046354621E0E900CC
:100DF800491B8A002244D2F800121B69C3F312036C
:100E0800C91AC2F81012D2F80012D2F804320B44F0
:100E1800C2F8043228E019F0080F3DD119F0100F7C
:100E280004D007EB45131022C3F8082B01354FEA0D
:100E38005808B8F1000F3FF45FAF18F0010FF5D074
:100E48005FFA85FA5146206801F017FB814610F0D9
:100E5800010FE0D007EB45130122C3F8082B03F577
:100E680030632269012AC2D05146204602F058F95F
:100E78002369012BCFD1002DCDD1C5EBC50293003D
:100E88002344D3F80C32002BC5D104F56F7201212D
:100E9800206801F029FBBEE7204602F039F907EB8C
:100EA80045130822C3F8082BB8E7206801F0DDFADB
:100EB800804635462EE0EA00521B93002344196C05
:100EC8005A6C0A445A6446E019F0080F04D007EB3C
:100ED80045130822C3F8082919F0100F04D007EBAE
:100EE80045131022C3F8082919F0400F04D007EB66
:100EF80045134022C3F8082919F0020F04D007EB64
:100F080045130222C3F8082919F0800F3AD1013598
:100F18004FEA5808B8F1000F3FF4F5AE18F0010F8A
:100F2800F5D05FFA85FA5146206801F0AFFA81469C
:100F380010F0010FC8D0012202FA05F0D7F83438B2
:100F480023EA0003C7F8343807EB4513C3F8082928
:100F580023699342AFD05146204602F0EDF8236949
:100F6800012BB1D1002DAFD1C5EBC50293002344AD
:100F7800DB6C002BA8D104F56F720121206801F009
:100F8800B3FAA1E729462046FFF7B8FDBFE7D7F82F
:100F9800043823F00103C7F80438204602F006F9A4
:100FA8002268536903F000435361B2E6204602F019
:100FB800E5F8BAE6B84607F50069D9F8043023F031
:100FC8000103C9F804301021206800F09BFE07E0F7
:100FD80008EB4613FF22C3F80829C3F8082B01368B
:100FE80063689E42F4D34FF0FF33C9F81830D9F83C
:100FF8001C3043F00113C9F81C30236BEBB1D9F84E
:10100800843043F00B03C9F88430D9F8443043F0F6
:101018000B03C9F84430D7F8003823F4FE63C7F847
:10102800003804F56F72217C206801F05DFA2268AF
:10103800536903F48053536183E6D9F8143043F0BD
:101048000B03C9F81430D9F8103043F00B03C9F872
:101058001030E0E7206801F02BFA2268D36823F407
:101068007053D360206800F07AFE90B90023E360E3
:101078004FF4007363612268D36843F41053D3605C
:10108800204602F06AF82268536903F4005353615A
:101098005EE60323E3604023636100F025FD674BB0
:1010A8000344674A934205D82268D36843F47053CF
:1010B800D360E5E7634B0344634A934205D822684B
:1010C800D36843F46053D360DAE7A0F57403A3F55B
:1010D80010535E4A934205D82268D36843F45053AC
:1010E800D360CDE7A0F18373A3F5E743584A934251
:1010F80005D82268D36843F44053D360C0E7554B02
:101108000344554A934205D82268D36843F43053C0
:10111800D360B5E7514B0344514A934205D822683E
:10112800D36843F42053D360AAE74E4B03444E4A96
:10113800934205D82268D36843F41053D3609FE7DD
:10114800A0F1B773A3F55853484A934205D82268CB
:10115800D36843F40053D36092E7454B0344454AB0
:10116800934205D82268D36843F4E053D36087E7F5
:101178002268D36843F4C053D36081E747F6F0731D
:101188001E423FF4FBAD36094FEAC80AAAEB080332
:101198004FEA8309A144C6F30A02D9F80412384673
:1011A80001F0B4F8C6F30A06D9F804323344C9F892
:1011B8000432D9F810321E44C9F81062DEE508225C
:1011C80004F56F71384601F0A1F8C6F30A164FEA24
:1011D800C803A3EB08018A002244D2F810321E4447
:1011E800C2F81062CAE5204601F0B1FF22685369CF
:1011F80003F008035361CDE5E9B2204601F0E2FFB0
:101208002268536903F480135361CAE5E9B22046A2
:1012180001F0D2FF2268536903F400135361C7E554
:10122800204601F0D5FF2268536903F080435361DB
:10123800C5E5204601F0D2FFCEE500BF405327FFA9
:10124800FF340C00401E1BFF3F420F007F4F12006F
:101258001FD6130060B6E5FE5FE3160000D3CEFE8E
:101268003F771B00C05BB3FEBF9121001F7538009C
:10127800E05459FEDF9C410090F8B833012B01D1AE
:101288000220704710B50446012380F8B83300687F
:1012980001F0B7F8002084F8B80310BD70B54DB25E
:1012A800002D18DB01F07F06C6EBC606B40004F576
:1012B800FC74044401F07F012170ED0F6570A26099
:1012C800E37005B1E180022B0DD090F8B833012B03
:1012D8000CD1022070BD01F07F06C6EBC606B40033
:1012E80038340444E6E700232371EEE7054601237A
:1012F80080F8B8332146006800F051FD002085F8D9
:10130800B80370BD10B54AB2002A12DB01F07F04A1
:10131800C4EBC404A30003F5FC73034401F07F018C
:101328001970D20F5A7090F8B823012A09D10220F7
:1013380010BD01F07F04C4EBC404A3003833034498
:10134800ECE70446012280F8B8231946006800F04B
:101358006FFD002084F8B80310BD70B501F07F065A
:10136800F500A91B8C0004F5FC740119AD1BAC0039
:101378000444C4F80422C4F80C320023C4F8103220
:1013880084F8F93184F8F8610369012B06D066B155
:10139800DAB2006800F0C4FD002070BDC6EBC605D7
:1013A800AC000444C4F80822F1E7DAB2006800F09F
:1013B800E9FEF1E701F00F01C1EBC1018B00184410
:1013C800B0F81002704770B501F07F06F500A91B50
:1013D8008C0038340119AD1BAC0004446264E3642A
:1013E80000232365012384F8393084F838600369C1
:1013F800012B06D05EB1DAB2006800F091FD002042
:1014080070BDC6EBC605AC000444A264F2E7DAB2CC
:10141800006800F0B7FEF2E738B54AB2002A12DBDE
:10142800C1EBC104A30003F5FC73034401249C70C1
:1014380001F07F041C70D20F5A7090F8B823012A6B
:1014480009D1022038BD01F07F04C4EBC404A30015
:1014580038330344EAE70546012280F8B8231946E1
:10146800006800F067FF1CB1002085F8B80338BD9C
:1014780005F56F72297C286801F036F8F4E710B595
:101488004AB2002A12DBC1EBC104A30003F5FC73C6
:10149800034400249C7001F07F011970D20F5A7028
:1014A80090F8B823012A09D1022010BD01F07F0469
:1014B800C4EBC404A30038330344EAE7044601221A
:1014C80080F8B8231946006800F066FF002084F809
:1014D800B80310BD30B40468606A29B10D46A36A28
:1014E80000EB134000230CE040EA0240A06212E047
:1014F80003F1400104EB8101496800EB114001331D
:10150800DBB2691E8B42F3DB40EA024005F13F0182
:1015180004EB81014860002030BC704703685962C1
:1015280000207047002800F0BB8170B582B00446E7
:10153800036813F0010F3BD0A74B9B6803F00C0323
:10154800042B2CD0A44B9B6803F00C03082B21D050
:101558006368B3F5803F4FD0B3F5A02F52D09E4BB0
:101568001A6822F480321A601A6822F480221A60FB
:101578006368002B50D0FFF73BF90546964B1B6874
:1015880013F4003F14D1FFF733F9401B6428F5D951
:1015980003208AE1904B5B6813F4800FD8D08E4B00
:1015A8001B6813F4003F03D06368002B00F07A81B6
:1015B800236813F0020F55D0874B9B6813F00C0F6C
:1015C8003ED0854B9B6803F00C03082B33D0E368AF
:1015D800002B68D00122814B1A60FFF709F90546F4
:1015E8007D4B1B6813F0020F54D1FFF701F9401B24
:1015F8000228F5D9032058E1774A136843F4803369
:101608001360B5E7744B1A6842F480221A601A68AE
:1016180042F480321A60ABE7FFF7EAF805466E4BF2
:101628001B6813F4003FC3D0FFF7E2F8401B64289F
:10163800F5D9032039E1684B5B6813F4800FC6D1F4
:10164800654B1B6813F0020F04D0E368012B01D02F
:1016580001202AE1604A136823F0F803216943EA6C
:10166800C1031360236813F0080F40D0636963B3A4
:1016780001225B4B1A60FFF7BBF80546564B5B6FC0
:1016880013F0020F33D1FFF7B3F8401B0228F5D946
:1016980003200AE1504A136823F0F803216943EA5A
:1016A800C1031360DEE700224C4B1A60FFF7A0F875
:1016B8000546494B1B6813F0020FD3D0FFF798F883
:1016C800401B0228F5D90320EFE00022444B1A60A2
:1016D800FFF78EF80546404B5B6F13F0020F06D0FC
:1016E800FFF786F8401B0228F5D90320DDE02368C0
:1016F80013F0040F79D0384B1B6C13F0805F33D193
:1017080000230193344B1A6C42F080521A641B6C0C
:1017180003F080530193019B0125324B1B6813F49E
:10172800807F23D0A368012B34D0052B38D02A4BD7
:101738001A6F22F001021A671A6F22F004021A6760
:10174800A368002B36D0FFF753F80646224B1B6FD1
:1017580013F0020F48D1FFF74BF8801B41F2883392
:101768009842F3D90320A0E00025D6E71D4A136864
:1017780043F480731360FFF73BF80646194B1B6868
:1017880013F4807FCED1FFF733F8801B0228F5D9F8
:1017980003208AE0104A136F43F001031367CFE771
:1017A8000D4B1A6F42F004021A671A6F42F00102D9
:1017B8001A67C5E7FFF71CF80646074B1B6F13F0BF
:1017C800020F11D0FFF714F8801B41F288339842BA
:1017D800F3D9032069E000BF003802400000474207
:1017E800800E474200700040E5B9A369002B5BD02A
:1017F800304A926802F00C02082A58D0022B17D0FF
:1018080000222D4B1A60FEF7F3FF0446294B1B6894
:1018180013F0007F42D0FEF7EBFF001B0228F5D93A
:10182800032042E0234A136C23F080531364DCE75F
:101838000022214B1A60FEF7DBFF05461D4B1B6893
:1018480013F0007F06D0FEF7D3FF401B0228F5D91E
:1018580003202AE0E369226A1343626A43EA821397
:10186800A26A5208013A43EA0243E26A43EA02637F
:10187800104A53600122104B1A60FEF7B9FF044664
:101888000C4B1B6813F0007F06D1FEF7B1FF001B5D
:101898000228F5D9032008E0002006E0002004E033
:1018A80001207047012000E0002002B070BD012037
:1018B800FBE700BF0038024060004742F8B5314BF3
:1018C8009B6803F00C03042B59D0082B01D02E4839
:1018D800F8BD2C4B5A6802F03F025B6813F4800F86
:1018E8002AD0284B5B68C3F388131E4600275C0187
:1018F8000025E41A65EB0705A90141EA9461A001F6
:10190800001B61EB0501CB0043EA5073C400A0192A
:1019180043EB07014B0243EAD053440220461946E1
:101928000023FEF763FC174B5B68C3F301430133E5
:101938005B00B0FBF3F0F8BD124B5B68C3F3881390
:101948001E4600275C010025E41A65EB0705A9017E
:1019580041EA9461A001001B61EB0501CB0043EA59
:101968005073C400A01943EB07018B0243EA90535C
:101978008402204619460023FEF738FCD3E70348C3
:10198800F8BD00BF003802400024F40000127A00BD
:10199800002800F09D8070B504464F4B1B6803F08B
:1019A8000F038B4209D2CBB24B4A1370136803F072
:1019B8000F03994201D0012070BD236813F0020F74
:1019C80017D013F0040F04D0444A936843F4E0534B
:1019D8009360236813F0080F04D0404A936843F4D7
:1019E800604393603D4A936823F0F003A068034383
:1019F80093600D46236813F0010F32D06368012B02
:101A080021D09A1E012A25D9344A126812F0020FF1
:101A180060D032498A6822F0030213438B60FEF7D4
:101A2800E7FE06462D4B9B6803F00C036268B3EB98
:101A3800820F16D0FEF7DCFE801B41F288339842F5
:101A4800F0D9032070BD254A126812F4003FE0D196
:101A5800012070BD214A126812F0007FD9D10120FF
:101A680070BD1D4B1B6803F00F039D4209D2EAB2FB
:101A7800194B1A701B6803F00F039D4201D0012017
:101A880070BD236813F0040F06D0144A936823F43A
:101A9800E053E1680B439360236813F0080F07D005
:101AA8000E4A936823F46043216943EAC1039360B3
:101AB800FFF704FF094B9B68C3F30313084AD35C81
:101AC800D840084B18600020FEF748FE002070BD83
:101AD80001207047012070BD003C024000380240E0
:101AE800B436000800000020014B1868704700BF9A
:101AF8000000002084B010B5044603A880E80E005A
:101B0800089B012B11D0E36843F04003E3602046B3
:101B180000F00EFD4FF48033A363069B012B1ED00B
:101B28000020BDE8104004B07047A36B23F4803355
:101B3800A363E36823F4840323F04003E360E368CA
:101B480023F44013E3600F9B012B03D0204600F0E1
:101B5800EFFCE2E7E36843F48013E360F6E7A36889
:101B680043F00603A360A36843F02003A360D7E70C
:101B7800836843F00103836000207047836823F083
:101B8800010383600020704708B5C36823F0C04391
:101B9800C360012909D019B9C36843F08043C36001
:101BA8003220FEF72BFE002008BDC36843F0005327
:101BB800C360F5E784B0F8B5054607A880E80E00CD
:101BC800119F1FBBAB6B43F40013AB632C46002380
:101BD800C5F8003E05F50066D5F80038C5F80038A8
:101BE8000C9B012B17D00321284600F0B1F81021D7
:101BF800284600F087F8284600F098F8002333615B
:101C080073614FF0FF32B261F36119E0AB6B43F4DB
:101C18000023AB63DAE7099B23B90021284600F0CB
:101C280097F8E4E70121284600F092F8DFE74FF043
:101C38009040C2F8000900220A61FF228A6001333D
:101C480007998B420BD204EB431202F51061D2F8CC
:101C580000090028EBDB0020C2F80009EBE70023AD
:101C680008E04FF0904EC2F800EB00220261FF221C
:101C7800826001338B420DD204EB431202F53060CF
:101C8800D2F800EBBEF1000FEBDB4FF0000EC2F80C
:101C980000EBEAE7336923F4807333610A9B012B75
:101CA8001AD00022AA616FF080426A611BB9AB6941
:101CB80043F01003AB61AA69104B1343AB610D9B52
:101CC8001BB1AB6943F00803AB61012F0ED00020B4
:101CD800BDE8F84004B07047094A3263326B42F4F9
:101CE800803242F003023263326BDAE7AB6943F0C9
:101CF800804343F00403AB61E9E700BF00383C8050
:101D080000018000890141F02001016100230133B5
:101D1800054A934205D8026912F0200FF7D1002036
:101D280070470320704700BF400D03001023036174
:101D380000230133054A934205D8026912F0100FB7
:101D4800F7D1002070470320704700BF400D030003
:101D5800D0F800381943C0F8001800207047D0F8B0
:101D6800083800F5006013F0060F10D0836803F000
:101D78000603022B0DD0836803F00603062B0AD056
:101D8800836803F00603042B07D000207047002067
:101D9800704703207047032070470220704730B413
:101DA8004B78012B22D0D0F81C380D780122AA409C
:101DB80043EA0243C0F81C380B7800EB4310D0F814
:101DC800003B13F4004F0ED1D0F8003B8A68C2F3F1
:101DD8000A02C97842EA8142134343F0805343F42C
:101DE8000043C0F8003B002030BC7047D0F81C28E6
:101DF8000D78AB409BB21343C0F81C380C7800EB4D
:101E08004410D0F8003913F4004FECD1D0F8003961
:101E18008A68C2F30A02C97842EA814242EA8452D5
:101E2800134343F0805343F40043C0F80039DAE722
:101E380038B54B78012B36D00B78044600EB4313AA
:101E4800D3F8002B22F40042C3F8002B0B7800EBE8
:101E580043134FF00062C3F8002B0B7800EB4313D9
:101E68004FF08042C3F8002B002201322B4B9A42DC
:101E780052D80B7804EB431303F530639B6813F0D7
:101E8800100FF2D1D0F8043843F48063C0F8043856
:101E9800D0F81C38097801228A4023EA0243C0F8A6
:101EA8001C38002038BD0B78044600EB4313D3F8E8
:101EB800002922F40042C3F800290B7800EB4313F1
:101EC8004FF00062C3F800290B7800EB43134FF082
:101ED8008042C3F8002900220132104B9A4219D8D7
:101EE8000B7804EB431303F510639B6813F0804FE2
:101EF800F2D10D4604461021FFF704FFD4F81C2840
:101F0800297801238B409BB222EA0303C4F81C38CA
:101F1800002038BD032038BD032038BD400D030024
:101F280070B582B04B78012B3ED00B7800EB431391
:101F3800D3F8104BE40CE404C3F8104B0B7800EB17
:101F48004313D3F8104B24F0FF5424F4C014C3F8FF
:101F5800104B4B69002B40F0D4800B7800EB4313F7
:101F6800D3F8104B8D68C5F312052C43C3F8104BFA
:101F78000B7800EB4313D3F8104B44F40024C3F858
:101F8800104B012A00F0DC80CB78012B00F0DF80B9
:101F98000B7800EB4310D0F8003B43F00443C0F843
:101FA800003B002002B070BD4B696BBB0B7800EBA7
:101FB8004313D3F8104924F0FF5424F4C014C3F891
:101FC80010490B7800EB4313D3F8104944F400246C
:101FD800C3F810490B7800EB4313D3F81049E40C0D
:101FE800E404C3F81049012A54D0CB78012B57D008
:101FF8004B69002B54D0D0F834380E780124B44003
:102008002343C0F834384BE00B7800EB4313D3F884
:102018001049E40CE404C3F810490B7800EB4313AF
:10202800D3F8104924F0FF5424F4C014C3F810491D
:102038000C7800EB4414D4F810594B698E6833447B
:10204800013BB3FBF6F34E4E06EAC3432B43C4F8F9
:1020580010390B7800EB4313D3F810494D69C5F3D9
:1020680012052C43C3F81049CB78012BBBD10B7850
:1020780000EB4313D3F8104924F0C044C3F81049C7
:102088000B7800EB4313D3F8104944F00054C3F81D
:102098001049A8E70B7800EB43130C69C3F81449FF
:1020A800CB78012B14D00B7800EB4313D3F80049FD
:1020B80044F00444C3F80049CB78012B7FF471AF96
:1020C80014468B8A0A78C968009400F00BF968E70F
:1020D800D0F8083813F4807F09D10B7800EB43134C
:1020E800D3F8004944F00054C3F80049DBE70B7803
:1020F80000EB4313D3F8004944F08054C3F8004977
:10210800D1E78C682344013BB3FBF4F30C7800EB74
:102118004414D4F8105B1A4E06EAC3463543C4F893
:10212800105B0C7800EB4414D4F8106B8D689BB2EC
:1021380005FB03F5C5F312053543C4F8105B20E72A
:102148000B7800EB4313CA68C3F8142B1CE7D0F8CC
:10215800083813F4807F09D10B7800EB4313D3F8C8
:10216800002B42F00052C3F8002B11E70B7800EB6C
:102178004313D3F8002B42F08052C3F8002B07E733
:102188000000F81F30B44B78012B39D00B7800EBE6
:102198004313D3F8104BE40CE404C3F8104B0B784A
:1021A80000EB4313D3F8104B24F0FF5424F4C0146D
:1021B800C3F8104B4B690BB18B684B610B7800EB84
:1021C8004313D3F8104B44F40024C3F8104B0B7896
:1021D80000EB4313D3F8104B8D68C5F312052C435D
:1021E800C3F8104B012A76D00B7800EB4310D0F8D7
:1021F800003B43F00443C0F8003B002030BC70476C
:102208004B699BBB0B7800EB4313D3F8104924F0C0
:10221800FF5424F4C014C3F810490B7800EB43139F
:10222800D3F8104944F40024C3F810490B7800EBA4
:102238004313D3F81049E40CE404C3F810490B78AD
:1022480000EB4313D3F8004944F00444C3F80049B1
:10225800012A39D04B69002BCFD0D0F8343809780F
:1022680001228A401343C0F83438C6E70B7800EBE4
:102278004313D3F81049E40CE404C3F810490B786D
:1022880000EB4313D3F8104924F0FF5424F4C0148E
:10229800C3F810494C698B689C4200D94B610B7894
:1022A80000EB4313D3F8104944F40024C3F8104951
:1022B8000B7800EB4313D3F810494D69C5F31205A9
:1022C8002C43C3F81049BAE70B7800EB43100B69AD
:1022D800C0F8143991E70B7800EB4313CA68C3F8C8
:1022E800142B81E770B49DF80C4064B903339E0841
:1022F80007E000EB023303F5805351F8045B1D60DF
:102308000134B442F5D3002070BC70470332920800
:10231800002393420CD210B400F58054246841F88D
:10232800044B01339342F7D308465DF8044B7047DA
:10233800084670474B78012B17D00B7800EB4313F6
:10234800D3F8002B002A05DBD3F8002B22F08042BB
:10235800C3F8002B0B7800EB4310D0F8003B43F494
:102368000013C0F8003B002070470B7800EB4313C4
:10237800D3F80029002A05DBD3F8002922F080428F
:10238800C3F800290B7800EB4310D0F8003943F468
:102398000013C0F80039E6E74B78012B0FD00B7813
:1023A80000EB4313D3F8002B22F40012C3F8002BE0
:1023B800CB78023BDBB2012B19D9002070470B7890
:1023C80000EB4313D3F8002922F40012C3F80029C4
:1023D800CB78023BDBB2012BEFD80B7800EB431034
:1023E800D0F8003943F08053C0F80039E5E70B789E
:1023F80000EB4310D0F8003B43F08053C0F8003B9B
:10240800DBE7D0F8003823F4FE63C0F80038D0F8D2
:102418000038090101F4FE610B43C0F800380020C0
:10242800704708B5D0F8043823F00203C0F8043820
:102438000320FEF7E3F9002008BD08B5D0F80438FA
:1024480043F00203C0F804380320FEF7D7F9002050
:1024580008BD4269806910407047D0F8183800F507
:102468000060C0691840000C7047D0F8183800F5B3
:102478000060C069184080B2704700EB4111D1F884
:10248800082B00F50060406910407047D0F810280C
:10249800D0F83438CB40DB01DBB2134300EB4111F9
:1024A800D1F8080918407047406900F001007047EA
:1024B800D0F8003923F4FF6323F00703C0F800398C
:1024C80000F500639A6802F00602042A05D05A68EB
:1024D80042F480725A6000207047D0F8002942F018
:1024E8000302C0F80029F2E710B40024C0F8104B2A
:1024F800D0F8104B44F40024C0F8104BD0F8104B1F
:1025080044F01804C0F8104BD0F8104B44F0C04405
:10251800C0F8104B012903D000205DF8044B704728
:10252800C0F8142B4FF08023C0F8003BF4E70000FC
:10253800002301330C4A934211D80269002AF8DAC1
:10254800036943F00103036100230133064A934200
:1025580007D8026912F0010FF7D100207047032055
:1025680070470320704700BF400D0300D0F81832B1
:102578001BB10020C3F8140270470220704710B541
:10258800D0F81842D0F81C325BB194F80002FF284A
:1025980007D09B6894F8012221469847FF2384F8C6
:1025A8000032002010BD000043230380004870471C
:1025B8000C0000204323038000487047500000208F
:1025C8004323038000487047940000200A230380B7
:1025D80000487047D800002038B50446D0F8185293
:1025E80000F0C6FEC5F80C02D4F818324BB1D4F886
:1025F8001C32DB6805F50371D5F804029847002002
:1026080038BD022038BD000070B505460C46D0F82C
:1026180018620B7813F0600224D0202A25D1CA88CA
:10262800CAB113F0800F0AD14B7886F80032CB88F4
:1026380086F80132CA88314600F08AFC15E0D0F8E5
:102648001C329B68314660789847E28831462846B4
:1026580000F069FC09E0D0F81C329B680022487839
:10266800984702E04B780A2B01D0002070BD012268
:10267800014900F058FCF8E7E001002010B50446D5
:10268800812100F00AFE0121204600F006FE822189
:10269800204600F002FED4F8183253B1D4F81C32A8
:1026A8005B689847D4F8180200F020FF0023C4F8AC
:1026B8001832002010BD38B50446037C73BB4FF4B4
:1026C80000730222812100F0D7FD4FF4007302222B
:1026D8000121204600F0D0FD082303228221204654
:1026E80000F0CAFD4FF4077000F0F8FE0546C4F884
:1026F800180248B3D4F81C321B6898470023C5F861
:102708001432C5F81832237CA3B14023D5F804222B
:102718000121204600F01EFE002038BD4023022281
:10272800812100F0A9FD402302220121204600F06A
:10273800A3FDD1E74FF40073D5F804220121204608
:1027480000F008FE002038BD012038BD19B1C0F8DE
:102758001C120020704702207047D0F81832C3F8C6
:102768000812C3F8102200207047D0F81832C3F8B6
:10277800041200207047D0F818229AB108B5037CDB
:102788003BB14023D2F80422012100F0E3FD0020F0
:1027980008BD4FF40073D2F80422012100F0DAFDDD
:1027A800002008BD0220704798B108B50346D0F84C
:1027B800140210B10020C3F8140209B1C3F81012B2
:1027C8001846012380F8FC31027000F00DFD00204E
:1027D80008BD0220704719B1C0F8141200207047D4
:1027E8000220704708B500F039FD002008BD08B583
:1027F800D0F8143223B11B68984718B1022008BDDD
:10280800022008BD002008BD08B5D0F814325B6866
:102818009847002008BD38B5044600F502752846DB
:1028280000F01EF90123C4F8F431B4F80E32C4F8EC
:10283800F83194F8081201F01F03012B0ED03BB1B8
:10284800022B10D001F08001204600F034FD03E097
:102858002946204600F07EFA002038BD2946204649
:1028680000F09CFAF8E72946204600F0B3FAF3E7AF
:1028780010B5044619BB1346D0F8F421032A27D112
:10288800D0F80C11D0F8102191420BD8D0F814329E
:102898001B691BB190F8FC21032A0ED0204600F0DA
:1028A8006EFB15E0891AC0F80C118A4228BF0A4647
:1028B80092B2194600F05BFB0AE09847EEE70A4639
:1028C800D0F814329B691BB190F8FC11032901D090
:1028D800002010BD11469847FAE710B504460029B4
:1028E80047D11346D0F8F421022A05D094F80032D3
:1028F800012B3AD0002010BDC169026A914217D855
:102908008169B1FBF2F302FB13132BB98A4203D896
:10291800D0F8F831994218D3D4F81432DB681BB1D7
:1029280094F8FC21032A1DD0204600F033FBDDE794
:102938008A1AC26192B2194600F002FB00231A46B5
:102948001946204600F006FDD0E70022114600F0A7
:10295800F7FA0021C4F8F8110B460A46204600F0A1
:10296800F9FCC3E720469847DEE7002384F80032E5
:10297800C0E70A46D0F814325B69002BBAD090F849
:10298800FC110329B6D111469847B3E738B5044678
:1029980040230022114600F06FFC4025C4F8105176
:1029A8002B4600228021204600F066FC2562012388
:1029B80084F8FC31D4F818322BB1D4F814325B689F
:1029C800217920469847002038BD017400207047BF
:1029D80090F8FC3180F8FD31042380F8FC310020A8
:1029E800704790F8FD3180F8FC310020704708B539
:1029F80090F8FC31032B01D0002008BDD0F8143228
:102A0800DB69002BF8D09847F6E7002070470020D4
:102A180070470020704708B5012280F8FC21D0F8E3
:102A28001422526801799047002008BD002302E073
:102A38000133DBB201300278002AF9D11846704719
:102A48004B88012B00D0704710B50446C0F80432FB
:102A5800D0F814329B689847204600F090FA10BDD1
:102A68000B7803704B7843708B78CA7803EB02239A
:102A780043800B794A7903EB022383808B79CA79E7
:102A880003EB0223C380704710B50446802100F091
:102A980012FC0021204600F00EFC10BD30B583B0BA
:102AA80004460D464A88130A013B062B00F2818032
:102AB800DFE803F00413277F7F637000D0F810323B
:102AC8001B680DF10601007C9847BDF8062012B17D
:102AD800EB88002B71D103B030BD037C43B9D0F82B
:102AE80014329B6A0DF10600984702234370ECE705
:102AF800D0F81432DB6A0DF10600984702234370C0
:102B0800E3E7D2B2052A34D8DFE802F0030B131B3F
:102B1800232BD0F810325B680DF10601007C984732
:102B2800D3E7D0F810329B680DF10601007C984776
:102B3800CBE7D0F81032DB680DF10601007C98472E
:102B4800C3E7D0F810321B690DF10601007C9847E5
:102B5800BBE7D0F810325B690DF10601007C98479D
:102B6800B3E7D0F810329B690DF10601007C984755
:102B7800ABE72946FFF788FFADE7037C33B9D0F808
:102B880014325B6B0DF1060098479EE72946FFF764
:102B98007BFFA0E7037C43B9D0F814321B6B0DF11F
:102BA80006009847072343708FE72946FFF76CFF15
:102BB80091E72946FFF768FF8DE79A4228BF1A4632
:102BC800ADF806200146204600F0ADF983E738B598
:102BD80004468B88E3B9CB88D3B98D7805F07F0597
:102BE80090F8FC31032B0CD080F8FE51294600F0F8
:102BF80095FB204600F0C3F935B1022384F8FC3177
:102C080038BDFFF741FF38BD012384F8FC3138BDDA
:102C18002046FFF739FF38BD38B504460D46897898
:102C2800254B1970012909D890F8FC31022B09D0DD
:102C3800032B1CD02946FFF727FF38BD2946FFF78D
:102C480023FF38BD81B14160032380F8FC31FFF7D1
:102C5800CEFD022803D0204600F091F938BD294660
:102C68002046FFF711FF38BD00F089F938BD89B15A
:102C7800436899421DD0D9B2FFF7C6FD0E4B1978AB
:102C880061602046FFF7B3FD02280DD0204600F012
:102C980076F938BD022380F8FC314160FFF7B4FDB6
:102CA800204600F06CF938BD29462046FFF7ECFEB7
:102CB80038BD00F064F938BDE101002008B5CB88C3
:102CC800012B08D190F8FC31022B07D0032B0DD033
:102CD800FFF7DAFE08BDFFF7D7FE08BD014600235F
:102CE80041F8083F012200F01EF908BD0122011D2C
:102CF80000F019F908BD08B590F8FC31023B012B2A
:102D08000CD80123C360D0F804320BB10323C3608D
:102D1800022200F10C0100F006F908BDFFF7B4FE2D
:102D280008BD10B5044690F8FC31023B012B0ED8C3
:102D38004B88012B00D010BD0023C0F80432D0F816
:102D480014329B689847204600F019F910BDFFF728
:102D58009BFEF0E708B54B78092B1CD8DFE803F099
:102D680012181B151B09051B0F0CFFF797FE0020F7
:102D780008BDFFF72CFFFAE7FFF74EFFF7E7FFF76D
:102D88009DFFF4E7FFF7B7FFF1E7FFF759FEEEE71E
:102D9800FFF7C7FFEBE7FFF777FEE8E738B504462C
:102DA8000D4690F8FC31032B11D10B79012B03D977
:102DB800FFF76AFE002038BDD0F814329B689847A8
:102DC800EB88002BF6D1204600F0D9F8F2E7FFF7A0
:102DD8005BFEEFE738B505460C468A880B7803F0AA
:102DE8006003202B11D0D1B26378012B2BD0002B9C
:102DF8004DD0032B0DD190F8FC31022B0BD0032BB7
:102E080010D02146FFF740FE03E0D0F814329B684B
:102E18009847002038BD0029FBD08029F9D000F060
:102E28004AFAF6E7638823B919B1802901D000F07E
:102E380042FAD5F814329B68214628469847284616
:102E480000F09DF8E5E790F8FC31022B05D0032B44
:102E58000AD02146FFF718FEDBE70029D9D08029E0
:102E6800D7D000F028FAD4E76388002BD1D111F02D
:102E78007F0F03D1284600F082F8CAE700F029FA4C
:102E8800D5F814329B68214628469847F2E790F80F
:102E9800FC31022B05D0032B09D02146FFF7F4FDA6
:102EA800B7E711F07F0FB4D000F005FAB1E712F0E0
:102EB800800F11D101F07F04103400EB04140434A6
:102EC800284600F014FA70B101232360022221463B
:102ED800284600F028F89CE701F07F04013400EB55
:102EE80004140434ECE700232360EFE7D0B170B595
:102EF8000D4616460446FFF799FD0130400080B2A2
:102F08003080287003236B70022307E05A1CD2B26A
:102F18000134E9540233DBB20021A9542178002995
:102F2800F4D170BD704710B513460222C0F8F421E1
:102F38008361C3610A46002100F0FEF9002010BD3C
:102F480008B513460A46002100F0F6F9002008BD2E
:102F580010B513460322C0F8F421C0F80831C0F8B0
:102F68000C310A46002100F0F5F9002010BD08B523
:102F780013460A46002100F0EDF9002008BD08B507
:102F88000423C0F8F43100231A46194600F0D4F996
:102F9800002008BD08B50523C0F8F43100231A46FF
:102FA800194600F0D7F9002008BD000010B5094CFB
:102FB800002209492046FFF7F7FB08492046FFF79A
:102FC8000AFC07492046FFF7C1FB2046FFF70AFC29
:102FD80010BD00BFF401002044010020E4000020DF
:102FE8001C010020002070470020704738B50446B7
:102FF800204D01462846FFF7B8FB2846FFF7BBFBE4
:1030080023783E2B01D0002038BD6378013B032B89
:103018002DD8DFE803F002080E144FF4805116484B
:10302800FDF768FDEFE74FF400511348FDF762FD27
:10303800E9E74FF480411048FDF75CFDE3E74FF402
:1030480000410D48FDF756FDDDE70B4D01224FF419
:1030580070412846FDF748FD00224FF4704128468C
:10306800FDF742FD0134054B9C42EEDDCBE7002421
:10307800F9E700BFF4010020000C02403F420F00B6
:1030880010B5064C002206492046FFF766FB0549A5
:103098002046FFF76AFB002010BD00BFF4010020A6
:1030A800180C0020180400200368B3F1A04F00D0CA
:1030B800704710B586B04FF4C053019302230293B2
:1030C80000240394032304930A23059301A90E48BB
:1030D800FDF724FC0D4B5A6B42F080025A630094B2
:1030E8005A6C42F480425A645B6C03F48043009348
:1030F800009B224621464320FDF7A6FB4320FDF70F
:10310800D5FB06B010BD00BF0000024000380240E9
:1031180008B500F56F71D0F8EC03FFF77CFB08BD2C
:1031280008B5C1EBC10293000344D3F80422D0F8D8
:10313800EC03FFF79DFB08BD08B5C1EBC102930086
:1031480003445A6CD0F8EC03FFF7C7FB08BD08B579
:10315800D0F8EC03FFF74BFC08BD10B50446C36874
:103168004BB10121D4F8EC03FFF72FFCD4F8EC03A2
:10317800FFF70CFC10BD0021F4E7000010B5044671
:10318800D0F8EC03FFF724FC2268D2F8003E43F0A5
:103198000103C2F8003E236A23B1034A136943F0CE
:1031A8000603136110BD00BF00ED00E008B5D0F8BC
:1031B800EC03FFF716FC08BD08B5D0F8EC03FFF7E1
:1031C80026FC08BD08B5D0F8EC03FFF71EFC08BDC7
:1031D80008B5D0F8EC03FFF71CFC08BD08B5D0F81B
:1031E800EC03FFF718FC08BD03780BB1002070470B
:1031F80010B503461748C0F8EC33C3F820024FF067
:10320800A0430360042343600222C26000230361D9
:1032180043618261C36103624362C3620363FDF772
:10322800C3FC80B90B4C80212046FEF777F9402279
:1032380000212046FEF74EF9802201212046FEF7A4
:1032480049F9002010BD4FF4A5710348FDF790F926
:10325800E8E700BF18140020E036000808B5D0F8E9
:103268002002FDF711FD18B1022803D0022008BD85
:10327800002008BD012008BD10B51C461346224693
:10328800D0F82002FEF70AF818B1022803D002206D
:1032980010BD002010BD012010BD08B5D0F82002D7
:1032A800FEF730F818B1022803D0022008BD00202C
:1032B80008BD012008BD08B5D0F82002FEF7ACF81B
:1032C80018B1022803D0022008BD002008BD012043
:1032D80008BD08B5D0F82002FEF7D1F818B10228C9
:1032E80003D0022008BD002008BD012008BDD0F889
:1032F800203211F0800F08D101F07F01C1EBC1012C
:103308008A00134493F8FA01704701F07F01C1EB7A
:10331800C1018A00134493F83A00704708B5D0F801
:103328002002FDF7A9FF18B1022803D0022008BD2A
:10333800002008BD012008BD08B5D0F82002FEF71E
:1033480042F818B1022803D0022008BD002008BDA9
:10335800012008BD08B5D0F82002FDF7FEFF18B11E
:10336800022803D0022008BD002008BD012008BDA6
:1033780008B5D0F82002FEF71DF808BD12230B800F
:10338800004870472C01002004230B800048704738
:103398004001002008B50A4628B105490548FFF74D
:1033A800A5FD034808BD02490248FFF79FFDF8E75D
:1033B80008180020FC36000810B5044C0A462146BF
:1033C8000348FFF793FD204610BD00BF08180020F2
:1033D8001437000808B50A4628B105490548FFF71B
:1033E80085FD034808BD02490248FFF77FFDF8E75D
:1033F800081800202837000808B50A4628B10549EA
:103408000548FFF773FD034808BD02490248FFF766
:103418006DFDF8E7081800203837000808B50A4697
:1034280028B105490548FFF761FD034808BD024971
:103438000248FFF75BFDF8E708180020443700084A
:10344800DFF834D0002103E00C4B5B5843500431C3
:103458000B480C4B42189A42F6D30B4A02E0002361
:1034680042F8043B094B9A42F9D3FDF751F900F0B1
:1034780011F8FDF7E3F870470000022064370008F0
:1034880000000020C4010020C40100200C1A002004
:10349800FEE7000070B50D4E0D4CA41BA4100025CE
:1034A800A54209D10B4E0C4C00F0F4F8A41BA41053
:1034B8000025A54205D170BD56F82530984701353D
:1034C800EEE756F8253098470135F2E75C370008F3
:1034D8005C3700085C37000860370008024B01467B
:1034E800186800F059B800BF60010020024B01467F
:1034F800186800F003B800BF6001002038B5054621
:10350800002945D051F8043C0C1F002BB8BFE41823
:1035180000F0B0F81F4A1368104633B963601460AE
:103528002846BDE8384000F0A6B8A3420CD9216867
:103538006218934204BF1A685B68636004BF52183C
:1035480022600460ECE713465A680AB1A242FAD92D
:1035580019685818A0420BD12068014458188242B3
:103568001960DDD1106852685A6001441960D7E7C4
:1035780002D90C232B60D3E7206821188A4204BFA4
:1035880011685268626004BF091821605C60C7E76F
:1035980038BD00BFE401002070B5CD1C25F003053F
:1035A80008350C2D38BF0C25002D064601DBA94235
:1035B80003D90C233360002070BD00F05BF8234A68
:1035C8001468214691B9224C23681BB9304600F093
:1035D80041F820602946304600F03CF8431C26D1CB
:1035E8000C233360304600F046F8E4E70B685B1BB9
:1035F8001AD40B2B0FD90B60CD50CC18304600F0E5
:103608003AF804F10B00231D20F00700C31A1BD061
:103618005A42E25070BD8C420DBF63684B686360CC
:10362800136018BF0C46E9E70C464968CAE7C41C92
:1036380024F00304A04205D0211A304600F00AF80D
:103648000130CDD02560D9E770BD00BFE40100206E
:10365800E801002038B5064C0023054608462360DB
:1036680000F00AF8431C02D1236803B12B6038BD6F
:10367800081A002070477047044A05491368002B50
:1036880008BF0B461844106018467047EC0100202C
:10369800101A0020F8B500BFF8BC08BC9E46704759
:0C36A800F8B500BFF8BC08BC9E46704797
:1036B40000000000000000000102030406070809DE
:1036C40000000000010203042E2E2F436F72652FA9
:1036D4005372632F6D61696E2E6300002E2E2F5579
:1036E40053425F4445564943452F757362645F6393
:1036F4006F6E662E6300000053544D3332205669BA
:10370400727475616C20436F6D506F7274000000A9
:1037140053544D6963726F656C656374726F6E693F
:10372400637300003030303030303030303031416D
:103734000000000043444320436F6E666967000045
:1037440043444320496E74657266616365000000FA
:08375400D0CAFF7F0100000054
:04375C00AD010008B3
:0437600089010008D3
:103764000024F400010000001000000009024300DE
:10377400020100C032090400000102020100052414
:10378400001001052401000104240202052406009E
:10379400010705820308001009040100020A000061
:1037A40000070501024000000705810240000000F7
:1037B40009024300020100C03209040000010202B0
:1037C4000100052400100105240100010424020263
:1037D40005240600010705820308001009040100FE
:1037E400020A000000070501020002000705810229
:1037F4000002000009074300020104C0320904006A
:103804000001020201000524001001052401000149
:10381400042402020524060001070582030800FFB0
:1038240009040100020A000000070501024000002B
:1038340007058102400000000A0600020000004063
:1038440001000000BF260008852600081126000894
:10385400000000008725000875250008E125000800
:10386400000000000000000000000000BD2500086A
:10387400B1250008C9250008D525000889300008AD
:10388400ED2F0008F12F0008F52F000812010002A7
:1038940002020040830440570002010203010000B9
:1038A400040309048533000891330008C133000878
:1038B4009D330008DD330008013400082534000876
:1038C400640100200000000000000000000000006F
:1038D40000000000000000000000000000000000E4
:1038E40000000000000000000000000000000000D4
:1038F40000000000000000000000000000000000C4
:1039040000000000000000000000000000000000B3
:1039140000000000000000000000000000000000A3
:04392400000000009F
:040000050800344972
:00000001FF
